:020000040800F2
:1000000000000824351500084D10000851100008A4
:1000100055100008591000085D100008000000008D
:100020000000000000000000000000006110000857
:100030006510000800000000691000086D1000083D
:100040008515000885150008851500088515000828
:100050008515000885150008851500088515000818
:100060008515000885150008851500088515000808
:1000700085150008851500088515000885150008F8
:1000800085150008851500088515000885150008E8
:1000900085150008851500088515000885150008D8
:1000A00085150008851500088515000885150008C8
:1000B000711000087D1000088910000885150008DF
:1000C00085150008851500088515000885150008A8
:1000D0008515000885150008851500088515000898
:1000E000851500088515000800000000851500082A
:1000F0008515000885150008851500088515000878
:1001000095100008A1100008AD1000088515000822
:100110008515000885150008851500088515000857
:100120008515000885150008851500088515000847
:100130008515000885150008851500088515000837
:1001400000000000000000000000000000000000AF
:100150008515000885150008851500088515000817
:100160008515000885150008851500088515000807
:100170008515000885150008851500080000000099
:1001800085150008851500088515000885150008E7
:1001900085150008851500088515000885150008D7
:1001A000B910000885150008C5100008851500085D
:1001B00085150008851500088515000885150008B7
:1001C00085150008851500088515000885150008A7
:1001D00085150008D1100008851500088515000850
:1001E0008515000885150008851500088515000887
:1001F0008515000885150008851500088515000877
:100200008515000885150008851500088515000866
:100210008515000885150008851500088515000856
:1002200085150008DD100008851500080000000095
:1002300085150008851500080000000085150008D8
:100240008515000885150008851500088515000826
:100250008515000885150008851500088515000816
:100260008515000885150008851500088515000806
:100270008515000885150008851500080000000098
:100280008515000885150008851500080000000088
:080290000000000085150008C4
:1002A00010B5054C237833B9044B13B10448AFF3B0
:1002B00000800123237010BD5803002400000000BB
:1002C000F8DA000808B5034B1BB103490348AFF344
:1002D000008008BD000000005C030024F8DA00087C
:1002E00001F0FF01102A2BDB10F0070F08D010F8E7
:1002F000013B013A8B422DD010F0070F42B3F6D1EB
:10030000F0B441EA012141EA014122F007047FF003
:1003100000070023F0E80256083C85EA010586EA5A
:10032000010685FA47F5A3FA87F586FA47F6A5FA96
:1003300087F68EB9EED1F0BC01F0FF0102F00702A2
:1003400032B110F8013B013A83EA010313B1F8D14D
:100350000020704701387047002D06BF354603382E
:10036000073815F0010F07D1013015F4807F02BF67
:10037000013015F4C03F0130F0BC0138704700BFB8
:10038000034613F8012B002AFBD1181A01387047D5
:10039000194A00231948D2F8D81041F0010110B5CC
:1003A000436082B0C3610362154CC0E90B33C2F8ED
:1003B000D8104FF40071D2F8D830802204604FF486
:1003C000006403F0010382604FF480620193019B9B
:1003D0000323C0E903124FF400510422C0E9054190
:1003E000C0E9092301F0F6FA08B902B010BD02B065
:1003F000BDE8104000F096BD00440258740300248C
:100400001000024008B50848002308490122C0E94D
:100410000013C0E9022301F07BFD00B908BDBDE86F
:10042000084000F07FBD00BFEC0300240010005224
:100430000F4B02689A4200D070470E4B00225A20A0
:10044000114610B5D3F8D44082B044F01004C3F87C
:10045000D440D3F8D43003F010030193019B01F092
:1004600025F95A2002B0BDE8104001F05DB900BF87
:100470000010005200440258F0B502228BB03648FA
:1004800007230292002108924FF4805203934FF405
:1004900000640593042342624FF400520493022344
:1004A000826203222D4D4160C16102A90560046290
:1004B000CDE9062301220823C0E9022340231022AC
:1004C000C0E904234FF4C073836106F045FE0028A1
:1004D0003FD1234C01250026102721464FF480529E
:1004E0001D480196E6602560C4E9017506F070FEBE
:1004F000284601F0B1F8022321464FF480521648F5
:100500002360E660C4E9017506F062FE0322082359
:10051000214622604FF480520F4867601027E66042
:100520000426A36006F054FE4FF40D7321464FF4E9
:10053000805209480193019BA560E360C4E900670C
:1005400006F046FE4FF46171034806F061FE0BB001
:10055000F0BD00F0E7FCBCE7680400244041005215
:100560005804002439480023D0B50168B6B0CDE95D
:100570000233CDE90433069309B136B0D0BD01236F
:10058000B822036008A80BF043FA4FF0807307A865
:10059000079304F065FD002854D12D4B4FF63F0022
:1005A00002210C24D3F8D4200026032742F48052E1
:1005B000C3F8D420D3F8D430069403F48053CDE9A3
:1005C0000201019302A92348019BCDE9046701F0D0
:1005D00077FD2C22022302A91F480694CDE90223AD
:1005E000CDE9046701F06CFD48F23712022302A93D
:1005F0001A480694CDE90223CDE9046701F060FDB5
:100600004FF68372022302A915480694CDE902230E
:10061000CDE9046701F054FD02234CF2037202A9F4
:1006200010480694CDE90223CDE9046701F048FDA6
:1006300000223020114601F039F8302001F074F822
:1006400036B0D0BD00F06EFCA7E700BF5404002414
:100650000044025800140258001C025800180258A6
:1006600000100258000C02582DE9F0434F4B8FB098
:1006700000244F4E4F4F4FF410610C94304601252B
:100680004FF008084FF00009CDE90844CDE90A44CD
:10069000D3F8E02042F01002C3F8E020D3F8E020C5
:1006A00002F010020092009AD3F8E02042F4807227
:1006B000C3F8E020D3F8E02002F480720192019A9E
:1006C000D3F8E02042F00402C3F8E020D3F8E020A1
:1006D00002F004020292029AD3F8E02042F02002D3
:1006E000C3F8E020D3F8E02002F020020392039A3E
:1006F000D3F8E02042F08002C3F8E020D3F8E020F5
:1007000002F080020492049AD3F8E02042F0010241
:10071000C3F8E020D3F8E02002F001020592059A28
:10072000D3F8E02042F04002C3F8E020D3F8E02004
:1007300002F040020692069AD3F8E02042F0080246
:10074000C3F8E0202246D3F8E03003F00803079313
:10075000079B01F0EDFD22463846502101F0E8FDEF
:100760004FF4106308A9304608930B94CDE909555E
:1007700001F0A6FC5023384608A908930B94CDE954
:10078000095501F09DFC08A90B480A94CDE9088998
:1007900001F096FC022308A930460A93CDE90889A6
:1007A00001F08EFC0FB0BDE8F08300BF004402589A
:1007B00000200258001C02580018025808B50548CD
:1007C000054B036002F03AF800B908BDBDE80840E7
:1007D00000F0A8BB9C040024003000520F4B0268BC
:1007E0009A4200D070470E4B00227920114610B576
:1007F000D3F8D44082B044F02004C3F8D440D3F8F6
:10080000D43003F020030193019B00F04FFF7920C7
:1008100002B0BDE8104000F087BF00BF00300052BA
:100820000044025810B58EB03422002101A80BF00C
:10083000EFF82648002326492F22838680F8363099
:10084000C0E90013C0E9043202218722C0E9023363
:10085000C0E9061240F2A7332222C0E9082340F281
:10086000CF3340F20222C0E90A2340F20F23036390
:1008700002F02AFE10BB012400224FF448704FF40E
:10088000F0730594FF240B9001A9069405240C93A2
:100890000792ADF834208DF83620CDE901204FF4D1
:1008A0008060CDE903234FF0404308900748CDE92D
:1008B000094302F0DFFE20B90EB010BD00F032FB9C
:1008C000D9E700F02FFB0EB010BD00BFF4040024E8
:1008D00000100050694B0268F0B59A428FB04FF09B
:1008E0000004CDE90844CDE90A440C9401D00FB0CE
:1008F000F0BD634B03250E2608A9D3F8E420022798
:10090000604842F00802C3F8E420D3F8E42002F083
:1009100008020092009AD3F8E02042F01002C3F8D7
:10092000E020D3F8E02002F010020192019AD3F8FF
:10093000E02042F48072C3F8E020D3F8E02002F413
:1009400080720292029AD3F8E02042F02002C3F8AB
:10095000E020D3F8E02002F020020392039AD3F8BB
:10096000E02042F00102C3F8E020D3F8E02002F0DA
:1009700001020492049AD3F8E02042F08002C3F806
:10098000E020D3F8E02002F080020592059AD3F827
:10099000E02042F04002C3F8E020D3F8E02002F06B
:1009A00040020692069AD3F8E02042F00802C3F80B
:1009B000E0206022D3F8E03003F00803079302231D
:1009C000CDE90B56CDE90823079B01F079FB40F2F6
:1009D000F76308A92C4808930C960997CDE90A45B6
:1009E00001F06EFB4FF4806308A928480893CDE915
:1009F0000974CDE90B5601F063FB042308A92448D0
:100A00000893CDE90974CDE90B5601F059FB4FF479
:100A10007F4308A91F480893CDE90974CDE90B5617
:100A200001F04EFB47F2C00308A91B480893CDE92B
:100A30000974CDE90B5601F043FB4FF4807308A90C
:100A4000134808930D230B950C93CDE9097401F01D
:100A500037FB402308A91148089309970C96CDE964
:100A60000A4501F02DFB22462146582000F01EFECB
:100A7000582000F059FE0FB0F0BD00BF001000502C
:100A80000044025800100258002002580014025876
:100A900000000258001C025800180258000C0258AE
:100AA00010B59EB04C2200210AA80AF0B1FF202206
:100AB000002102A80AF0ACFF022003F051FC2A4AF0
:100AC00000212A4B0191916941F440419161916962
:100AD00001F440410191D96A41F00101D962DB6A18
:100AE00003F001030193019B93699B04FCD5204A09
:100AF000052108240AA8936A23F0030343F00203A4
:100B000093620223002215911793C0211993169125
:100B10001C929FED137BCDE9133320238DED0A7BCF
:100B20001893CDE91A4203F0CBFC034608B172B624
:100B3000FEE73F21402204934FF48063029103219A
:100B400002A8079203910421CDE90542CDE90832BC
:100B500004F02AF808B172B6FEE71EB010BD00BF5F
:100B60000100000000000100004802580004005885
:100B70000044025810B5B0B0B8220021C02402A829
:100B80000AF046FF0B4A19230220042101920A931E
:100B900006224FF40013CDE90B400DEB0100229328
:100BA000CDE90D1204F05CFA08B172B6FEE730B080
:100BB00010BD00BF000004202DE9F04F002389B0D4
:100BC00001250424CDE90433CDE9063300F0D0FD3E
:100BD0004FF01052BF4B04A8ADF81050CDE90523DB
:100BE000BD4B079300F0E2FD4FF0405304A88DF891
:100BF0001150059300F0DAFD02214FF060520F23EF
:100C000004A88DF8111005928DF8183000F0CEFD73
:100C100003214FF04042182304A88DF811100592CB
:100C20008DF8183000F0C2FD4FF01042162304A8D2
:100C30008DF8114005928DF8183000F0B7FD204670
:100C400000F0A4FDA54B5A6912F4003211D1BFF394
:100C50004F8FBFF36F8FC3F85022BFF34F8FBFF397
:100C60006F8F5A6942F400325A61BFF34F8FBFF35E
:100C70006F8F9A494B6913F4803324D1C1F88430C3
:100C8000BFF34F8FD1F8805043F6E076C5F34E3472
:100C9000C5F3C905640104EA06002B4640EA8372E5
:100CA000013B5F1CC1F86022F8D1203C14F1200FF9
:100CB000F1D1BFF34F8F4B6943F480334B61BFF3E6
:100CC0004F8FBFF36F8F00F085FCFFF7E9FEFFF752
:100CD00051FFFFF7C9FCFFF795FBFFF7CDFBFFF7CF
:100CE0006DFDFFF79FFD00F01FF900F0C3FA00F063
:100CF000F9FA00F031FB00F069FB08F0A7FEFFF7FE
:100D000047FB09F031FE01224021754801F010FB3C
:100D1000744A754BD2F8D400196840F01000734B38
:100D2000C2F8D4000020D2F8D42002F010020092C1
:100D3000009A1A6822F001021A604FF440321A60D9
:100D400001225A636A4AD96318645A6498631A681C
:100D500042F001021A605A689207FCD59A684FF077
:100D60000050DFF898A14FF4403742F00202DFF85C
:100D700090B15C4D01269A6040F257294FF0FF3345
:100D80005A4CDFF88081C0F80130D5F8D4304FF4E8
:100D90001672584843F01003C5F8D430D5F8D43053
:100DA00003F010030493049B236823F001032360E2
:100DB000FF2327606663E16322646064A3632368A2
:100DC00043F00103236063689B07FCD5A06801F230
:100DD00055234FF47F4240F00200A060D5F8D400C4
:100DE00040F01000C5F8D400D5F8D40000F0100091
:100DF00003900398206820F001002060276066635C
:100E0000E363C4F84090C4F84480A263236843F0CD
:100E10000103236063689807FCD5A06801F2AD4325
:100E20004FF47F0240F00200A060D5F8D40040F0FB
:100E30001000C5F8D400D5F8D40000F010000290DE
:100E40000298206820F00100206027606663E36359
:100E5000C4F84090C4F84480A263236843F00103BF
:100E6000236063689A07FCD5A36801F205716FF0EF
:100E70007F4043F00203A360D5F8D43043F0100361
:100E8000C5F8D430D5F8D43003F010030193019B9A
:100E9000236823F00103236027606663E163C4F8DD
:100EA0004090C4F84480A063236843F001032360AA
:100EB00063689B07FCD5A3680F4843F00203A36057
:100EC000DAF80030DBF80010B3F57F0F18BF1B0213
:100ED0001AE000BF120001030000010100ED00E074
:100EE000001C025800440258040000240010005264
:100EF000E0012003E001C80010DB0008000000242E
:100F00009C050024E001C90008BFFF23CAF8003097
:100F10004B1CCBF8003009F08DFD014B196834E70C
:100F20000400002472B6FEE7054B002205484FF48A
:100F300080415A611860C3E90122C3E90312704776
:100F4000A005002400700052D0B5B8B000210446BE
:100F5000BC2209A80891CDE90411CDE906110AF0D7
:100F600057FD2D4B22689A4201D038B0D0BD4FF4C6
:100F7000803309A8099304F073F8002848D1274B5F
:100F80004FF4F85002210C24D3F8D4200026032774
:100F900042F48032C3F8D420D3F8D42002F4803253
:100FA0000192019AD3F8E02042F00402C3F8E02055
:100FB000D3F8E02002F004020292029AD3F8E02073
:100FC00042F00802C3F8E020D3F8E030089403F0C0
:100FD0000803CDE90401039304A91148039BCDE95B
:100FE000066701F06DF80223042204A90D48089455
:100FF000CDE90423CDE9066701F062F80022312033
:10100000114600F053FB312000F08EFB38B0D0BD0C
:10101000FFF788FFB3E700BF00700052004402589A
:1010200000080258000C0258074B82B0D3F8F42095
:1010300042F00202C3F8F420D3F8F43003F00203C4
:101040000193019B02B0704700440258FEE700BFC5
:10105000FEE700BFFEE700BFFEE700BFFEE700BF00
:10106000704700BF704700BF704700BF00F0E2BA92
:10107000014806F071BA00BF20060024014806F0BE
:101080006BBA00BF6C060024014806F065BA00BFC9
:10109000B8060024014806F08BB800BF680400249D
:1010A000014805F01DBF00BFA0050024014806F05F
:1010B00053BA00BF04070024014802F079BA00BF08
:1010C000F4040024014800F067BF00BFEC030024D3
:1010D000014802F06FBC00BF381C0024014802F038
:1010E00051B900BF9C0400240120704708B50AF0E4
:1010F000E1FC162203464FF0FF301A6008BD00BF26
:1011000008B50AF0D7FC16230360FEE770B5161E7B
:1011100007DD0C468D19AFF3008004F8010BA542E2
:10112000F9D1304670BD00BF70B5161E07DD0C4604
:101130008D1914F8010BAFF30080AC42F9D13046A1
:1011400070BD00BF4FF0FF30704700BF4FF4005339
:1011500000204B60704700BF01207047002070479F
:1011600038B50D4C03460D490D4D2268491B2AB177
:1011700013448B4208D81046236038BD0948024604
:10118000206013448B42F6D90AF094FC0C234FF0F4
:10119000FF320360104638BD1C06002400000824FE
:1011A00000200000B02300242749284AD1F88830C5
:1011B00043F4700310B4C1F88830136803F00F03D0
:1011C000062B05D8136823F00F0343F007031360C1
:1011D0001F4B00241F4A19681C4841F00101196087
:1011E0001C6119680A401A6003681B0705D503686B
:1011F00023F00F0343F007030360154B0022164949
:10120000164C17489A61DA611A629C62D8621963B7
:101210005A639963DA6319645A641868114C20F4AC
:101220008020114918601A6623681940B1F1005FE7
:1012300003D20E4B0122C3F808210D4B43F2D20218
:101240005DF8044B1A60704700ED00E0002000528A
:10125000004402587FEDF6EA80020101000202021A
:101260000000FF010010005C0000FFFF0080005143
:101270000040005200B5002389B019484FF080416A
:101280004FF0FF3204930193036183610793C0E938
:101290000013C0E90232CDE90533CDE9023305F090
:1012A000CFFF90B94FF4805304A90D48049306F082
:1012B0007DF890B9002301A909480193039306F032
:1012C00003FA28B909B05DF804FBFFF72BFEE9E744
:1012D000FFF728FE09B05DF804FBFFF723FEE9E7FE
:1012E0002006002400B5002389B019484FF6FF728C
:1012F000184904930193036183610793C0E90013C4
:10130000C0E90232CDE90533CDE9023305F098FF9B
:1013100090B94FF4805304A90D48049306F046F8A1
:1013200090B9002301A90A480193039306F0CCF970
:1013300028B909B05DF804FBFFF7F4FDE9E7FFF712
:10134000F1FD09B05DF804FBFFF7ECFDE9E700BF34
:101350006C0600240004004000B5002389B0194841
:101360004FF6FF7218490493019303618361079359
:10137000C0E90013C0E90232CDE90533CDE90233FB
:1013800005F05EFF90B94FF4805304A90D48049313
:1013900006F00CF890B9002301A90A4801930393C1
:1013A00006F092F928B909B05DF804FBFFF7BAFD21
:1013B000E9E7FFF7B7FD09B05DF804FBFFF7B2FD01
:1013C000E9E700BFB80600240008004000B500238C
:1013D00089B019484FF0FF32184904930193036113
:1013E00083610793C0E90013C0E90232CDE90533F8
:1013F000CDE9023305F024FF90B94FF4805304A9DE
:101400000D48049305F0D2FF90B9002301A90A48C2
:101410000193039306F058F928B909B05DF804FB6D
:10142000FFF780FDE9E7FFF77DFD09B05DF804FBFC
:10143000FFF778FDE9E700BF04070024000C004037
:101440000368B3F1804F10B584B022D0354A93427F
:1014500037D0354A93424CD0344A934201D004B03D
:1014600010BD334B00223220D3F8E840114644F03F
:101470000804C3F8E840D3F8E83003F00803039306
:10148000039B00F013F9322004B0BDE8104000F0D7
:101490004BB9274B00221C20D3F8E840114644F0FA
:1014A0000104C3F8E840D3F8E83003F001030093E7
:1014B000009B00F0FBF81C2004B0BDE8104000F0D9
:1014C00033B91B4B00221D20D3F8E840114644F0ED
:1014D0000204C3F8E840D3F8E83003F002030193B4
:1014E000019B00F0E3F81D2004B0BDE8104000F0BF
:1014F0001BB90F4B00221E20D3F8E840114644F0E0
:101500000404C3F8E840D3F8E83003F0040302937E
:10151000029B00F0CBF81E2004B0BDE8104000F0A4
:1015200003B900BF0004004000080040000C004068
:1015300000440258DFF834D0FFF736FE0C480D495E
:101540000D4A002302E0D458C4500433C4188C421E
:10155000F9D30A4A0A4C002301E013600432A24284
:10156000FBD30AF0ADFAFFF727FB70470000082411
:10157000000000245803002484E1000858030024DC
:10158000AC230024FEE700000F4B1B780BB90120B1
:10159000704710B504464FF47A700C4AB0FBF3F371
:1015A0001068B0FBF3F000F0CDF80F2C00D808B1B4
:1015B000012010BD002221464FF0FF3000F076F8E8
:1015C000034B00201C6010BD100000240800002404
:1015D0001400002410B50320124C00F055F803F05D
:1015E00043FA114B11499A699B69C2F3032203F034
:1015F0000F038A5CCB5C02F01F020D4903F01F034E
:10160000D04020FA03F308600F202360FFF7BCFFEF
:1016100010B10124204610BD0446FFF705FD204609
:1016200010BD00BF0C0000240044025814DB000869
:1016300008000024034A044B11681B780B44136014
:10164000704700BF5007002410000024014B1868A9
:10165000704700BF5007002438B50446FFF7F6FF77
:101660000546631C02D0044B1B781C44FFF7EEFFB9
:10167000431BA342FAD338BD10000024014B186865
:10168000000C70470010005C06494FF6FF0C00028A
:10169000054BCA6800F4E06002EA0C021043034301
:1016A000CB60704700ED00E00000FA051B4BDB68E3
:1016B000C3F3022300B5C3F1070E03F1040CBEF11E
:1016C000040F28BF4FF0040EBCF1060F1AD9033BDC
:1016D0004FF0FF3C0CFA03FC22EA0C024FF0FF3CF7
:1016E00000280CFA0EFC21EA0C0101FA03F141EA90
:1016F00002010ADB09010A4BC9B2034483F8001353
:101700005DF804FB00221346E8E700F00F00090132
:10171000044BC9B2034419765DF804FB00ED00E008
:1017200000E100E0FCEC00E0002807DB012300F012
:101730001F01034A40098B4042F82030704700BF28
:1017400000E100E0431EB3F1807F0CD24FF0E022B5
:10175000002006494FF0F00C5361072381F823C0A5
:101760009061136170470120704700BF00ED00E0F9
:10177000BFF35F8F044B00215A6A22F480325A6211
:10178000C3F89410704700BF00ED00E0064B40F036
:101790000100C3F894005A6A42F480325A62BFF3DF
:1017A0004F8FBFF36F8F704700ED00E0174A43780B
:1017B000C2F89830017821B3436800B5C2F89C3074
:1017C000C37A90F80CC01B0690F80FE043EA0C7344
:1017D00090F80AC00B43817B43EACC4390F80DC0DC
:1017E00043EA8C4390F809C043EA4143017A43EA53
:1017F0000E4343EA0C2343EA4103C2F8A0305DF8EC
:1018000004FBC2F89C10C2F8A010704700ED00E085
:1018100002680146324B334870B4334E334DB24206
:1018200018BF9A42324C0CBF01230023AA4208BFC2
:1018300043F00103A24208BF43F001033034824267
:1018400008BF43F001033030A24208BF43F0010358
:101850003034824208BF43F0010300F55C70A242BD
:1018600008BF43F0010304F55C74824208BF43F0F3
:1018700001033030A24208BF43F0010330348242FA
:1018800008BF43F001033030A24208BF43F0010318
:101890003034824208BF43F001033030A24208BF17
:1018A00043F00103824208BF43F0010313B9114B17
:1018B0009A4212D1D3B21048104C103BA0FB0350F7
:1018C0005F2B4FEA1010205CC8650D4800EA02004B
:1018D00088BF0430886570BC704722F0FF00F9E7CC
:1018E0001000024070000240280002404000024008
:1018F00058000240B8040240ABAAAAAA24DB0008A0
:1019000000FCFFFF0368274A274930B4274D284CC5
:10191000AB4218BF93420CBF012200228B4208BF8A
:1019200042F001022831A34208BF42F001022834EC
:101930008B4208BF42F001022831A34208BF42F0A7
:1019400001028B4208BF42F0010212B9194A9342C8
:1019500013D1DBB21849194A083B194CA1FB0313F8
:10196000012102EB1312C3F30413920001FA03F3F3
:101970008366C0E9182430BC7047D9B2114A124CB2
:1019800010391A44A4FB0141A82A4FEA111100D8CA
:1019900008310E4A01F01F0401230A44A3400C4CF5
:1019A0009200E5E708540258305402581C5402587B
:1019B0004454025894540258CDCCCCCC0096001616
:1019C00080580258F0FBFDBFABAAAAAA0082001003
:1019D000800802402DE9F04F054683B0FFF736FE40
:1019E000002D00F099812C680646A04B9C4248D0FF
:1019F00018339C4245D030339D4A944218BF9C42D4
:101A000002F130020CBF01230023944208BF43F0CF
:101A100001031832944208BF43F001031832944284
:101A200008BF43F001031832944208BF43F001039A
:101A300002F55672944208BF43F0010318329442F3
:101A400008BF43F001031832944208BF43F001037A
:101A50001832944208BF43F001031832944208BF81
:101A600043F001031832944208BF43F001031832D7
:101A7000944208BF43F001031BB97E4B9C4240F0E7
:101A8000A481022385F83530002385F8343023689B
:101A900023F00103236006E0FFF7D8FD801B052833
:101AA00000F220812C682368DF07F5D4D5E90230E5
:101AB00029690343AA6920680B4369690B43E969F3
:101AC00013430B436C490140286A03436B480B43A3
:101AD000696A042900F02481066869483040B0F141
:101AE000005F80F0DD802360636923F007030B4310
:101AF00063612846FFF78CFEEA6D3F235B4902F0E5
:101B00001F02604E604F9340604AA61BE71B836034
:101B1000A4EB020B5E4BB6FA86F6BBFA8BFBB7FA68
:101B200087F7A4EB030A5B4B4FEA5B1B5A489C42C6
:101B300018BF8C4203F11803BAFA8AFA4FEA561614
:101B40000CBF012100214FEA5A1A221A9C4208BFF9
:101B500041F0010118337F09B2FA82F29C4208BFBA
:101B600041F00101183352099C4208BF41F00101C4
:101B7000183301929C4208BF41F0010118339C4286
:101B800008BF41F0010118339C4208BF41F0010138
:101B900003F556739C4208BF41F0010118339C4283
:101BA00008BF41F0010118339C4208BF41F0010118
:101BB00018339C4208BF41F0010118339C4208BF12
:101BC00041F0010118339C4208BF41F00101183374
:101BD0009C4208BF41F0010118339C4208BF41F00C
:101BE00001012E4B4BEA0101A4EB030814334AEA2E
:101BF0000101B8FA88F8A4EB0309143331434FEA22
:101C00005818B9FA89F9E31A39434FEA5919B3FA5E
:101C100083F348EA01015B0949EA0101194300D154
:101C2000DAB128460093FFF76DFEA968009B802972
:101C300066D068682A6EC4B20138D5E919C1072890
:101C40001460CCF8041062D8611E072979D96A6F34
:101C5000D5E91B300021196042600020012368652E
:101C600085F8353003B0BDE8F08F00BF10000240AA
:101C700040000240B80402403F8010FE0010005CAB
:101C80000000FFFF305402584454025808540258D0
:101C90001C540258280002409454025858540258C8
:101CA0006868A0F129061F2E25D94F38032801D8CE
:101CB00043F4801323600429636923F0070343EA94
:101CC00001037FF415AFE86AA96A0B4300283FF4CB
:101CD0000FAF002A53D1012972D031F002027FF4F4
:101CE00007AF54E02022032301206A6585F83530D0
:101CF00003B0BDE8F08F7848F040C007DAD5D7E7E9
:101D00000023A96ED5E918026B60036051600023BF
:101D1000C5E91B336B67A0E7012003B0BDE8F08F76
:101D20000768D5E90B06064333436C4E3E40B6F1D7
:101D3000005FB5D22360636923F0070343F0040317
:101D4000C2E7019A1A4349EA020948EA090847EA40
:101D500008073E435AEA060607D1BBF1000F04D13B
:101D60005F4B604823449B0003E05F4B5F48234484
:101D70009B0001228A40C5E91B306A676AE7B2F519
:101D8000005F0ED0022905D903297FF4B1AEC2014C
:101D90007FF5AEAE0123402218466A6585F83530DE
:101DA000A6E703293FF6A4AE01A252F821F000BF36
:101DB000951D00088F1D0008951D0008C11D000815
:101DC000B0F1C07F7FF494AEE4E7494A494BA4EBFD
:101DD000020B494EA4EB030A484FBBFA8BFBA61B30
:101DE000BAFA8AFA3C334FEA5B1BB6FA86F64FEA38
:101DF0005A1AE71BA4EB030876091433B7FA87F7DE
:101E00004BEA0A01B8FA88F8A4EB03097F093143C9
:101E100014334FEA5818B9FA89F93943E31A3848A4
:101E20004FEA591948EA0101B3FA83F3221A49EA41
:101E300001015B09B2FA82F219434FEA5212019290
:101E400001D1002A41D00221DFF8C0C085F8351049
:101E5000002185F83410216801EA0C0CA96840299A
:101E600030D0A1F18001B1FA81F149094FEA813EF8
:101E70002969E868C908234A009341EAD0006969E2
:101E8000224440EAD100A96940EAD100E96940EA68
:101E9000D100296A40EA111141EA0C014EEA010120
:101EA00021601949A1FB0201284609098900E96559
:101EB000FFF7AEFCE96D009B01F01F040121A1407A
:101EC0004160AEE64FF0100ED2E74022032301201E
:101ED0006A6585F835300BE73F00C0C30000FFFF9F
:101EE0003F820010400902403F96001640590258B8
:101EF000085402581C540258305402584454025892
:101F000094540258F8ABFDA7CDCCCCCC0F00FEFF0B
:101F1000002835D038B590F86130044603F0FF0250
:101F20004BB323680220626884F86100E1691D6890
:101F300014481143A2682840E5680143A06919606C
:101F40000243596B10480840104902435A631A6C07
:101F50001140D4E90402294352051964596B42EA3D
:101F60000052002021F440110A435A6301236066A5
:101F700084F8613038BD80F86020FEF759FAD0E768
:101F800001207047BFFFF8FFF8FEFFFF0000FFFFD2
:101F9000704700BF704700BF036870B55D680446B6
:101FA0001E68EA0701D5F10556D4AA0601D5B30487
:101FB0003BD4280701D5310521D46A0701D5730523
:101FC00072D4A80701D5B10504D4EA0601D5F304FB
:101FD00057D470BD23681A6822F400721A60022276
:101FE0009A600122636E6366002384F8612084F89E
:101FF0006030236A002BE8D020469847E5E7236845
:102000001A6822F400621A6008229A600422636E41
:102010001343636684F861200022636A84F86020B9
:10202000002BCAD020469847C7E723681A6822F4D5
:1020300000521A6020229A600422636E43F0020369
:10204000636684F861200022636A84F86020002BB4
:10205000AFD020469847ACE71A6822F480721A6025
:10206000426E42F00102426601229A60042380F827
:102070006130002380F86030436A002B95D0984788
:1020800093E723681020012100251A6822F480526A
:102090001A6098602046636E84F86050636684F826
:1020A0006110FFF777FF70BD236820461A6822F49D
:1020B00080621A6004229A60FFF76AFF81E700BF1E
:1020C0002DE9F04F0C6883B0002C00F0A7804FF092
:1020D000000C8A4F634601229A4012EA040E00F077
:1020E00096804D6805F0030909F1FF36012E40F294
:1020F0009880B9F1030F40F0D28009FA0CF26FEA30
:102100000208066815F4403F06EA080642EA06029D
:1021100002607CD0D7F8F42023F0030803F0030911
:102120000F2642F0020208F1B0484FEA8909C7F8C9
:10213000F42008F58068D7F8F42006FA09F602F0D2
:1021400002020192019AD8F8082022EA06026C4E97
:10215000B04228D006F58066B04200F0AC80694EEF
:10216000B04200F0AD80684EB04200F09F80674EF4
:10217000B04200F0AF80664EB04200F0B080654ED5
:10218000B04200F0A280644EB04200F0AD80634ED9
:10219000B04200F0AE80624EB0420CBF09260A2663
:1021A00006FA09F63243C8F808204FF0B04215F499
:1021B000801F6FEA0E0612684FF0B0480CBF324025
:1021C0004EEA020215F4001FC8F80020D8F80420D7
:1021D0004FF0B0480CBF32404EEA020215F4003F07
:1021E000C8F80420D8F884204FF0B0480CBF324023
:1021F0004EEA0202ED034FF0B045C8F88420D8F84B
:10220000802054BF32404EEA0202C5F880200133DC
:102210000CF1020C34FA03F27FF45DAF03B0BDE8B9
:10222000F08F4FF00308866808FA0CF826EA080ACF
:10223000CE686FEA080806FA0CF646EA0A068660D7
:10224000C5F30016D0F804A09E402AEA02023243E9
:102250004260C268B9F1020F8E6802EA080206FA0B
:102260000CF646EA020609FA0CF2C6607FF449AFA2
:102270004FEAD30903F0070B0F2600EB89094FEA59
:102280008B0BD9F820A006FA0BF62AEA060A0E698B
:1022900006FA0BF646EA0A06C9F8206031E74FF065
:1022A000030808FA0CF86FEA0808D2E7032606FAD2
:1022B00009F6324377E7012606FA09F6324372E758
:1022C000022606FA09F632436DE7062606FA09F6F3
:1022D000324368E7042606FA09F6324363E7052627
:1022E00006FA09F632435EE7072606FA09F6324394
:1022F00059E7082606FA09F6324354E70044025823
:102300000000025800080258000C02580010025841
:102310000014025800180258001C025800200258ED
:10232000002402580369194214BF0120002070479D
:1023300002B90904816170472DE9F0470D46144642
:102340009A460678814601274FF0000806E019F802
:10235000016F06EB0803B3F5807F37D805EB080063
:102360003246394616B1B04409F052FB102F07F13E
:102370000107ECD1002305F80830CAF8008028785E
:10238000014600B36FF0404801271A4688420FD13A
:1023900002EB0800561C05EB020C04EB8000F61A59
:1023A00040F8043FF2181CF801EF01338E45F7D0D6
:1023B0001F290BD807FA01F0984207D9A85C5B00E7
:1023C00001310028E2D10020BDE8F0870120BDE8FE
:1023D000F08700BFF0B5ADF2145D0D46044601ABC9
:1023E00043AA02A9FFF7A8FFD0B9019FC7B10F37D1
:1023F0000DF5867E02A904F10F0C274409E011F8BF
:10240000012BBC455EF8046B02F1FF32E660EA5432
:1024100006D01CF8013F0B2B05EB8304EFD90120FC
:102420000DF2145DF0BD00BF2DE9F04F046893B0CC
:10243000084604F5F8639A4200F09D8004F5FC63B9
:102440009A4203D0012013B0BDE8F08F04F5FF6479
:1024500003A9FFF7BFFF0028F5D16FF0F0239DF827
:1024600017A09DF816E023604FEA0A2A63604FEA3E
:102470000E2E9DF80E300AF4706A9DF844200EF47A
:10248000706E1B029DF815904AEA020A9DF814C06E
:1024900003F470634FEA09294FEA0C2C9DF813806E
:1024A000019309F470699DF840300CF4706C9DF84C
:1024B00012104FEA08284EEA030E9DF8117008F436
:1024C000706809024EEA0A4E9DF8102001F470610E
:1024D0003F0244F804EC12029DF83CE007F47067F8
:1024E00002F470629DF80F6049EA0E099DF838E029
:1024F0003602019B4CEA0E0C9DF80D5006F47066F6
:102500009DF80CB04CEA094C2D0244F808CC4FEA77
:102510000B2B9DF834C005F470650BF4706B48EA22
:102520000C089DF830C041EA0C0141EA084144F82A
:102530000C1C9DF82C100F439DF828100A4342EA0A
:10254000074244F8102C9DF8242016439DF82020C3
:10255000134343EA064344F8143C9DF81C301D43E2
:102560009DF818304BEA030343EA054344F8183C4E
:1025700013B0BDE8F08F04F5FB6469E72DE9F04383
:102580000468ADF63C0D0D4604F5A0639A4242D0B6
:1025900004F5CC639A4204D001200DF63C0DBDE851
:1025A000F08304F2A47428466B460DF2344201A96C
:1025B000FFF7C2FE0028F0D1009B7BB30F330DF272
:1025C00034470DF1040C05F10F0205EB030E42AE8A
:1025D00011E003EB4503A12BDED81CF8015B06EBF1
:1025E000830857F8049B964505F1FF353146C8F836
:1025F000A490F55413D012F8011FA0230029ECD0A9
:102600000D0901F00F03F02905EB850503F1FF33F8
:10261000DFD1A123E1E704F24464C4E742A96FF0EB
:10262000F0231A4AA1EB810C0DF16605236063606B
:102630000CF54A7EA36003F1D333E2600CF5497CCC
:1026400003F12C23236103F10213636103F10213ED
:10265000A36191F8A12091F8A03012021EF8217018
:102660001B021CF8216002F47062023903F47063EB
:102670003A438D4243EA060343EA024344F8043DE9
:10268000E7D10DF63C0DBDE8F08300BFD00FD10FB0
:1026900003685A6802F00302022A2DE9F0438946D2
:1026A00000F094805C685A6814F0030472D1120C34
:1026B0000C608A60DA68120CCA605F4A03F1500C41
:1026C000C9F80440002602F140054FF0640E41F2C3
:1026D000883433E092F801800EFB07F7C16B11F8E4
:1026E0000880B7FBF8F7642F61D9B4FBF7F73E44D5
:1026F000C3F30747012F3DD092F802800EFB07F786
:10270000C16B11F80880B7FBF8F7642F4AD9B4FB06
:10271000F7F73E441B0E012B30D0D7780EFB03F3A6
:10272000C16BCF5DB3FBF7F3642B4AD9B4FBF3F372
:102730001E4404320CF1040C954225D0DCF8003024
:10274000DFB2012F2CD092F800800EFB07F7C16B8F
:1027500011F80880B7FBF8F7642F2DD9B4FBF7F711
:102760003E44C3F30727012FB4D1C3F307476436B0
:10277000012FC1D11B0E6436012BCED10432643639
:102780000CF1040C9542D9D1B6090020C9F81060AB
:10279000BDE8F08302F00302032A4AD1302416E098
:1027A0006436DEE7C7F1C80706EB5706B2E7C7F1A4
:1027B000C80706EB57069BE7C7F1C80706EB5706A5
:1027C000CFE7C3F1C80306EB5306B2E710245A68FB
:1027D000C9F80040120CC9F80820DA681D695F6961
:1027E000120C9E6917F0F00FC9F80C204FEA16166C
:1027F0004FEA1512C5F303154FEA171C08D1012D36
:1028000006D116F00F0F0CBF01240024640054E71A
:1028100042EA0C0212F00F043FF44FAF4CEA0602FA
:10282000C2F30302032D08BF002A0CBF01240024B9
:1028300043E70120BDE8F0834CDD0008002800F0EC
:102840000B8170B590F84D30044603F0FF02002B69
:1028500000F0FD80226802210023804884F84D109A
:10286000116B41F001011163116821F00101116048
:10287000116B21F07E011163116B41F40051116362
:10288000116B41F480411163916B41F060019163E0
:102890007349E0630120A364C4E91013C2F86C33E8
:1028A0004FF001316F4BC2F86803C2F864136E48F1
:1028B000C2F860336D4BC2F878036D49C2F87433C7
:1028C0006C4BC2F870136C48C2F888336B496C4B80
:1028D000C2F88403C2F88013C2F87C334FF6F923A0
:1028E000D2F82C046749014002F585600B43664924
:1028F000A1F1A006C2F82C3491F8AE30043991F859
:10290000B3E01B0491F8B0C091F8B150B14243EA72
:102910000E6343EA0C0343EA052340F80439EBD184
:10292000D2F82C344FF00131564801259BB243F0C8
:102930004073C2F82C34D2F83C340340C2F83C3423
:10294000C2F83854C2F83414C2F8301440F60A31D0
:10295000D2F83C349BB243F08073C2F83C34D2F8D6
:10296000483403401943494BC2F8481447F20271F6
:10297000C2F84434A3F10433C2F84034D2F84834E6
:102980009BB243F00073C2F84834D2F85834034085
:102990003F4819433F4BC2F858143F49C2F854040A
:1029A00002F59F60C2F85014C2F84C34D2F8583483
:1029B0003A499BB2A1F1A00643F08073C2F85834A3
:1029C00091F8B030043991F8B5501B0491F8B2E099
:1029D00091F8B3C0B14243EA056343EA0E0343EA08
:1029E0000C2340F80439EBD102F5A06226492046B9
:1029F000FFF7C4FD18B101231846236570BD226896
:102A00002046264902F5CC62FFF7B8FD0028F2D136
:102A100022682046224902F5F862FFF705FD0028EA
:102A2000E9D1226820461F4902F5FC62FFF7FCFC51
:102A30000028E0D122680121536843F48073536079
:102A40002062606284F84D102065606570BD80F87A
:102A50004C20FDF7C3FEFDE6012070470CDD0008A9
:102A600094DC00080001050108090A0B04050607AB
:102A7000000102030000017D0505040403020403B4
:102A8000000201030000FFFFE0DB00080607080961
:102A90000404000101020404030407052CDB000800
:102AA000F0DC0008D4DC0008704700BF704700BFAE
:102AB000704700BF704700BF704700BFF8B502689D
:102AC00010260446656D15F400551DD1536BDF06C5
:102AD0001AD5536CE769626A180A190CBB541B0EAD
:102AE000676AE2693A445070606AE2690244917030
:102AF000616AE2690A44D370636AE26A043363621A
:102B0000636A934221D02268013EDBD1616D536B31
:102B1000D80601D58B0417D4136823F00103136082
:102B2000636AEBB9636D0020626D012103F003035A
:102B300084F84C0002F482422046022B626584F83D
:102B40004D100AD0FFF7B2FFF8BD626A2046E16976
:102B5000FFF7B2FF22686562D6E7FFF7A9FFF8BD6D
:102B6000626A2046E169FFF7A7FF00236362D9E7A5
:102B7000436D03F00303022B03682DE9F041044683
:102B800082B01FD0626DD70407D45A6B960700F14C
:102B90001D815A6B500700F1B181656D15F4005528
:102BA00007D15E6B16F008064CD15A6BD20600F1C5
:102BB000E3815A6B02F03802202A1AD0002002B0BA
:102BC000BDE8F0815A6B5206DCD5011D0191FFF77B
:102BD0005FFD0023019920466361FFF765FF2368CD
:102BE0001A6B22F040021A639A6B42F040029A6319
:102BF000C8E71A6822F001021A60626D02F00C0246
:102C0000082A00F0E6819A6B42F060029A63636AD8
:102C1000002B40F0E381636D0021626D012503F01C
:102C20000303204602F4824284F84C10022B6265B2
:102C300084F84D5000F0C981FFF738FF284602B0F4
:102C4000BDE8F081626AE66A20329642C0F0E48113
:102C50005B6CE169626A8B54616AE2690A44190A31
:102C60005170616AE2690A44190C1B0E9170616A25
:102C7000E2690A44D370636A22680433E1696362DB
:102C8000536C626A8B54616AE2690A44190A517092
:102C9000616AE2690A44190C1B0E9170616AE2696B
:102CA0000A44D370636A226804336362536C626AB5
:102CB000E1698B54616AE2690A44190A5170616AD8
:102CC000E2690A44190C1B0E9170616AE2690A44B8
:102CD000D370636A22680433E1696362536C626A89
:102CE0008B54616AE2690A44190A5170616AE269A7
:102CF0000A44190C1B0E9170616AE2690A44D37090
:102D0000636A226804336362536C626AE1698B54BC
:102D1000616AE2690A44190A5170616AE2690A4407
:102D2000190C1B0E9170616AE2690A44D370636AE0
:102D300022680433E1696362536C626A8B54616A8E
:102D4000E2690A44190A5170616AE2690A44190C7D
:102D50001B0E9170616AE2690A44D370636A22684B
:102D600004336362536C626AE1698B54616AE2699D
:102D70000A44190A5170616AE2690A44190C1B0E6F
:102D80009170616AE2690A44D370636A226804330D
:102D9000E1696362536C626A8B54616AE2690A4456
:102DA000190A5170616AE2690A44190C1B0E91708C
:102DB000616AE2690A44D370636A04336362636AD6
:102DC000E26A9A4200F0AE822368F2E6A26A002A22
:102DD00000F00C81216A8A42216A40F2A481521AD1
:102DE000616DCD043FF5D9AE002A3FF4D6AE1F2A5F
:102DF0004FEA920140F20382A269216A5018555CA1
:102E0000817846780904C07841EA0621294341EADD
:102E100000611964216A04312162216A5018555CED
:102E2000817846780904C07841EA0621294341EABD
:102E300000611964216A04312162216A5018555CCD
:102E4000817846780904C07841EA0621294341EA9D
:102E500000611964216A04312162216A5018555CAD
:102E6000817846780904C07841EA0621294341EA7D
:102E700000611964216A04312162216A5018555C8D
:102E8000817846780904C07841EA0621294341EA5D
:102E900000611964216A04312162216A5018555C6D
:102EA000817846780904C07841EA0621294341EA3D
:102EB00000611964216A04312162216A5018555C4D
:102EC000817846780904C07841EA0621294341EA1D
:102ED00000611964216A04312162206A8118855CCD
:102EE0008A78C8781204497842EA01222A4342EAE1
:102EF00000621A64226A043222624EE6A26A002A42
:102F000074D0216A8A42216A00F264818A4240F0C8
:102F10000C81216A2046FFF7CDFDA26A042A02D95E
:102F200022F00302A262002123682162616DC904BC
:102F30003FF533AE002A3FF430AE910840F00382F3
:102F4000206A012A216AA56901F10101285C216238
:102F500010D0216A032A695C40EA0120216A01F14C
:102F60000101216206D1226AA95C226A40EA01407D
:102F700001322262186410E6626AE56A0432954200
:102F8000C0F0D5805B6CE169626A8B54616AE2696A
:102F90000A44190A5170616AE2690A44190C1B0E4D
:102FA0009170616AE2690A44D370636AE26A043329
:102FB0006362636A9A427FF407AF626A2046E169FE
:102FC000FFF77AFD23686662F3E5FFF771FD284697
:102FD000F5E51A6B22F07E021A6314E6626A204657
:102FE000E169FFF769FD0023636214E6626D02F098
:102FF0000C020C2A626D00F0FD8002F00C02082A1F
:10300000626D7FF4CAAD42F4805262651A6B22F0A1
:1030100006021A63626DC0E5626A96427FF6C9AD28
:10302000606A301A800820D0294600E023685B6C73
:103030000131626AE6698842B354666AE2693244E1
:103040004FEA13265670666AE26932444FEA134625
:103050004FEA13639670666AE2693244D370636A1A
:1030600003F104036362E1D1E66A636AB34200F0EC
:103070006181D4F824802368B6EB08005F6C0ED021
:1030800005F00303626AE1690135DB00A84227FA13
:1030900003F38B54636A03F101036362F0D108F117
:1030A0000408626AE1692046A8EB0608FFF704FD00
:1030B0000023B8F1030F63623FF686AE4FEAC80300
:1030C000626AE169B8F1030F27FA03F08854626A73
:1030D00002F1010262623FF477AE03F10802616A15
:1030E000E069B8F1020F27FA02F24254626A02F173
:1030F0000102626208F102023FF466AE1033616AB7
:10310000E069022A27FA03F34354636A03F10103D7
:1031100063627FF459AE636A3F0EE269D754636A13
:103120000133636250E68A4256D0626D35E5626AC9
:1031300095427FF63EAD606A281A800820D031465D
:1031400000E023685B6C0131626AE5698842AB5438
:10315000656AE2692A444FEA13255570656AE26997
:103160002A444FEA13454FEA13639570656AE26992
:103170002A44D370636A03F104036362E1D1E56A10
:10318000636A9D4200F0D680D4F824802368B5EBB2
:1031900008005F6C0ED006F00303626AE169013635
:1031A000DB00B04227FA03F38B54636A03F1010397
:1031B0006362F0D108F10408626AE1692046A8EB75
:1031C0000508FFF779FC0023B8F1030F63627FF66F
:1031D00075AFF9E5521AA9E6216A2046FFF76AFCA5
:1031E000A26A042A02D922F00302A2620021236803
:1031F0002162F5E542F480526265626DCDE4032AF6
:1032000040F2A48000293FF4C8AC206A0129A269D9
:1032100002EB0005165CA8786F784FEA0040ED7865
:1032200040EA072040EA060040EA05601864206A88
:1032300000F1040020623FF4B0AC206A022902EBE6
:103240000005165CA8786F784FEA0040ED7840EAF8
:10325000072040EA060040EA05601864206A00F191
:10326000040020623FF499AC206A032902EB0005B8
:10327000165CA8786F784FEA0040ED7840EA0720A6
:1032800040EA060040EA05601864206A00F1040084
:1032900020623FF482AC206A042902EB0005165C30
:1032A000A8786F784FEA0040ED7840EA072040EABE
:1032B000060040EA05601864206A00F104002062FC
:1032C0003FF46BAC206A052902EB0005165CA87878
:1032D0006F784FEA0040ED7840EA072040EA0600A8
:1032E00040EA05601864206A00F1040020623FF49F
:1032F00054AC206A072902EB0005165CA8786F78A9
:103300004FEA0040ED7840EA072040EA060040EA34
:1033100005601864206A00F1040020627FF43DAC6F
:10332000206ADBE5626A2046E169FFF7C5FB236896
:1033300065623EE4626A2046E169FFF7BDFB002258
:103340002368626235E4226AA069C7E5216A012A1E
:10335000206AA56900F10100695C206210D0206A32
:10336000032A285C41EA0021206A00F10100206262
:1033700006D1226AA85C226A41EA00410132226237
:1033800019640AE490F84D30033B012B00D97047D3
:10339000436D03F00C03082B30B5044683B006D010
:1033A000436D03F00C030C2B06D003B030BD03B00B
:1033B000BDE83040FFF7DCBB436D03F00303022B95
:1033C000036845D05A6B9206EFD5626D206B42F4CC
:1033D000004262651A6822F001021A601A6B22F03C
:1033E0007E021A639A6B42F060029A6390F83D3055
:1033F000022B52D0606B90F83D30022B3FD0036817
:10340000E26A5B69C3F31003D31A6362636A9A4288
:1034100046D02268556B15F0100535D1636A002B34
:1034200049D113680020012123F001031360636D6B
:10343000626D03F0030384F84C0002F482422046DC
:10344000022B626584F84D1032D0FFF72FFBACE7FA
:103450005A6B5106B6D5011D0191FFF719F90023EA
:10346000019920466361FFF71FFB23681A6B22F066
:1034700040021A639A6B42F040029A63A2E703B0DB
:10348000BDE8304000F0C8B9636D9B048DD4204680
:1034900003B0BDE83040FFF711BB00F0BDF9A9E76C
:1034A000626A2046E169FFF707FB00236362B0E729
:1034B000FFF7FEFA79E7626A2046E169FFF7FCFA56
:1034C00022686562ADE700BF002867D038B590F884
:1034D000A130044603F0FF02002B5AD0A06802215D
:1034E000D4E9003284F8A1100243E16898690A43E4
:1034F000216920F070400A43294998619869024384
:1035000060699A619A680A409A609A6842EA004241
:10351000A0690243E0699A60DA680A40DA60DA6812
:1035200042EA0042206A0243606ADA601A690A408D
:103530001A611A6942EA0042A06A0243E06A1A610B
:103540005A690A405A615A69216B42EA00420A43A9
:103550005A61DA6A94F8350002F07F4294F8361026
:10356000DA62DD6A94F834202A4342EA002200201D
:1035700042EA0142DA625A6B42F006025A639A69E1
:1035800042F001029A610123C4F8A40084F8A1303A
:1035900038BD80F8A020FDF79DF99FE70120704716
:1035A00000F800F0704700BF704700BF704700BFD1
:1035B000036870B59D6B04465E6B6A0701D57107A1
:1035C0001DD4AA0701D5B3072DD4E80701D5F1070B
:1035D00040D42A0701D5330700D470BD23680820E2
:1035E000012500215A6B22F008025A63D863204655
:1035F00084F8A15084F8A010FFF7D8FF70BD5A6B73
:1036000022F004025A630422DA63D0F8A43043F0B3
:103610000103C0F8A430002380F8A12080F8A03076
:10362000FFF7C0FFCDE7236820465A6B22F0020265
:103630005A630222DA630422D4F8A43043F002036E
:10364000C4F8A430002384F8A12084F8A030FFF748
:10365000A9FFBAE7236820465A6B22F001025A6399
:103660000122DA63002384F8A12084F8A030FFF758
:103670009BFFAEE790F8A030012B00F0C080022342
:103680002DE9F04F4FF0340ED0F8009080F8A130C3
:1036900083B00EFB020ED201D9F80C300C4602F1B9
:1036A00084060D46C3F30B4B804609EB060C0EF166
:1036B000380EDFF860A1DCF8043003F470430193A6
:1036C0000FCCAEE80F000FCC6F68AEE80F000FCC48
:1036D000AEE80F002368BB44CEF80030019B2A6897
:1036E000CCF80430D9F80C30511CE868C3F30B4314
:1036F000D5F818E00B4443EA0B43CCF80430D9F872
:103700000C10DCF80830C1F30A0103F470430144E3
:10371000CCF80830AB68D9F80C000133C0F30A00CC
:10372000034443EA01432969CCF80830DCF810303F
:1037300023F00703CCF81030CCF81010DCF8183068
:10374000002395F8320095F83140CCF8183095F800
:10375000303043EA0E6343EA042343EA0043CCF8E3
:103760001830DCF8143023F0FF03CCF814306B6908
:10377000CCF81430DCF81C00EB6900EA0A0A286A6D
:103780000343CCF81CA0CCF81C30DCF82830002314
:10379000CCF828306B6ACCF8283059BB0423BF1A08
:1037A000AA6A03FB07F702FB03F3EA6A073747EA53
:1037B0000347DCF82C3003F0E023CCF82C30CCF8B5
:1037C0002C70124BDCF830100B40CCF83030CCF8B9
:1037D0003020012259F80630134349F806300023FF
:1037E000C9F82420184688F8A12088F8A03003B032
:1037F000BDE8F08F0139062903D90123CFE7022064
:103800007047034B53F82130C9E700BF00F8FFFFB2
:103810008CDD0008F8F8FFFF034688B190F83D20E2
:10382000022A03D0802201209A6670470268042190
:10383000002083F83D10D36823F00103D360704764
:1038400001207047F0B58BB0002800F0888090F818
:10385000BD330546046803F0FF02002B79D02046F3
:1038600003232E462F1D85F8BD33E36B6C4613F4FE
:10387000807308BF2B6105F0A1FB56F810EBB4462E
:10388000BCE80F000FC4BCE80F000FC49CE80300A5
:1038900084E80300704697E80E0005F06FFA0446CE
:1038A00030B101240223204685F8BD330BB0F0BDB2
:1038B0000146286805F08AFB686858B322464FF035
:1038C000010E2146C2EBC20302F1010C05EB83039A
:1038D00083F83C20A3F842205FFA8CF283F83DE0A5
:1038E000824283F83F101965C3E91111EAD300221F
:1038F000C4EBC403611C05EB830383F8FC41CCB229
:1039000083F8FD21844283F8FF21C3F81022C3E924
:103910008122EDD36C460FCE0FC40FCE0FC496E8B4
:10392000030084E8030097E80E00286805F084FB94
:1039300004460028B5D101226B6A85F8380093420D
:1039400085F8BD230FD0286805F0FCFF20460BB09A
:10395000F0BD80F8BC2307F067F9286880E70124F0
:1039600020460BB0F0BD284600F0E0FCEBE700BFBE
:1039700010B590F8BC3304460068012B17D0012223
:10398000A36A934284F8BC2309D005F00FFB20689A
:1039900005F0C8FF0023184684F8BC3310BDA369A6
:1039A0009342F2D0836B43F480338363EDE70220CC
:1039B00010BD00BF2DE9F04F076889B004463846B6
:1039C00005F0FEFF10B109B0BDE8F08F8346206816
:1039D00005F0C8FF0028F6D0206805F0C3FF10F0FE
:1039E000020F206803D0436903F00203436105F02E
:1039F000B9FF10F0100F206812D0836923F0100374
:103A000083613D6AC5F3434305F00F06022B00F0C6
:103A10006682062B00F0B281836943F01003836154
:103A200005F0A0FF10F4002F206840F0D08005F0D2
:103A300099FF430376D4206805F094FF00285DDBEE
:103A4000206805F08FFF00054DD4206805F08AFF3F
:103A5000020114D52268536903F00063536194F89E
:103A6000F433002B40F074810121204684F8F413D4
:103A7000536DC3F38303C4F8F83300F06FFC206880
:103A800005F070FFC30400F11881206805F06AFF9B
:103A900010F4005F206840F0F98005F063FF07072D
:103AA00000F1EB80206805F05DFFC60200F1DB80CD
:103AB000206805F057FF850200F1CB80206805F0F3
:103AC00051FF400000F1BC80206805F04BFF41072A
:103AD0007FF579AF23685D686A0700F121825A6833
:103AE0002A435A606FE7D7F80838D90700F11482E3
:103AF0002068436903F400634361A7E7D7F804280B
:103B000022F00102C7F8042894F8F433012B00F0E6
:103B10002E81204607F01EF92068436903F0004318
:103B200043618EE7206805F029FF80462068B8F1E0
:103B3000000F81D04FF0000A07F510690397264661
:103B40005746CDF810B009E05FEA580807F10107C1
:103B500006F11C0609F1200900F0278118F0010F79
:103B6000F2D05FFA87FA514605F01AFFC3070546FF
:103B700016D50399012307F00F0203FA02F2D1F8D8
:103B8000343823EA0203C1F8343801232169C9F823
:103B90000830994200F0C9815146204607F09EF84E
:103BA000280702D50823C9F80830E90602D51023F2
:103BB000C9F808306A0602D54023C9F80830AB07B7
:103BC00000F185812D0600F12C812068BCE705F00D
:103BD000CDFE0546002800F0E48007F53066A246D9
:103BE0004FF000082068039708E06D0808F101080D
:103BF00006F120060AF11C0A00F0D580EF07F4D583
:103C00005FFA88F7394605F0C1FE8146206819F051
:103C1000010F40F0CD8019F0080F40F0E88019F056
:103C2000100F01D01023B36019F0200F01D0202312
:103C3000B36019F4005FD8D04FF40053B360D4E7F9
:103C4000204607F093F82068436903F080434361FE
:103C50003BE72046002107F081F82068436903F420
:103C6000001343612BE72046002107F07BF8206812
:103C7000436903F4801343611BE7204607F038F8DB
:103C80002068436903F0080343610CE705F09CFEDC
:103C9000206805F017FB2568E06001F0ADF8227B95
:103CA0000146284605F008F9204607F025F8206867
:103CB000436903F400534361EFE6D7F8043807F58E
:103CC00000651021206823F001036B6005F0D2FA33
:103CD0006068E0B107F510634FF67F3199600BF132
:103CE000010B1A682033834522F4001243F8202C7C
:103CF000C3F8E811D3F8E02122F40012C3F8E02160
:103D0000D3F8E02142F00062C3F8E021E6D1EB698C
:103D1000226B43F00113EB61F2B96A6942F22B03A3
:103D200013436B612B6943F00B032B61D7F8003809
:103D300004F57172217C23F4FE632068C7F8003813
:103D400005F058FE2068436903F4805343619DE603
:103D5000204606F0E7FF92E6D5F8843043F00B03E7
:103D6000C5F884306B6C43F00B036B64DEE7002115
:103D7000204684F8F41300F0F1FACDE6C6EBC6064F
:103D8000082204F57171384605F036FDC5F30A13B3
:103D900004EB86022068D2F814120B44C2F81432E5
:103DA0003AE6206843E6039F41E6DDE9037B43E60C
:103DB00001222169B26000F530620129D0F840C0CB
:103DC00002EB4812936800F0C6808E498C4500F0E3
:103DD000DA80B8F1000F04D1D4F81022002A00F0E4
:103DE0000A812046394606F06FFF206813E7082352
:103DF000B36000F53063026C834803EB48138242E2
:103E0000996840F2A3800A0402D54FF400429A60F8
:103E1000204606F053FF2169012900F0C180206887
:103E2000FDE6D6E91453D4F800B0AB4258463FF64D
:103E30008BAE0BF51062716CCDF81CB002EB471223
:103E40000592EA1A8A4228BF0A460599896903320F
:103E500089B2B1EB920FC0F092804A460697C146F4
:103E60005F46D046DDF814B0924619E0736C4246C6
:103E7000B16C38469D4228BF1D46237C0093ABB2EF
:103E800005F0A4FCB36CDBF818102B4489B2B364C2
:103E9000736D2B440335B1EB950F736568D3356DA6
:103EA000AB42A5EB0305E1D3C846069FD146D4F843
:103EB00000B0079B07F00F02584603F5006101238D
:103EC00003FA02F24B6B23EA02034B633CE63946EA
:103ED000039805F0CFF90223C9F8083072E647F6D7
:103EE000F0731D423FF498ADC6EBC606C5F30A1247
:103EF000384604EB86061546D6F8081205F07CFC19
:103F0000D6F8083220682B44C6F80832D6F81432A6
:103F10002B44C6F814327FE5204606F003FFE7E5A0
:103F2000204606F027FF2368D9E5D6E9112313447C
:103F3000B364002F7FF430AE236D002B7FF42CAEE2
:103F400004F57172206805F055FD25E6204606F05F
:103F5000B5FE206863E619071DD52B498C457FF611
:103F60005AAE1F047FF557AE4FF40043936052E6FC
:103F7000D4F800B0C846069FD146356D58469D42DC
:103F80003FF6E2AD95E71904EED499067FF529AF27
:103F90002021916025E7990608D5202393603AE611
:103FA00004F57172206805F025FD38E713F0280F3D
:103FB0007FF431AE14498C4501D91B04D4D4126965
:103FC000DAF80412C2F312028A1ACAF81422DAF8D2
:103FD00008220A44CAF80822B8F1000F7FF401AFA2
:103FE000D4F81022002A7FF4FCAE04F5717201218E
:103FF00005F000FDF5E604F57172414605F0FAFCA6
:10400000EFE600BF0A31544F0A30544F90F8BC23FA
:10401000012A0ED0012210B50446006884F8381039
:1040200084F8BC2305F06CFC0023184684F8BC33EC
:1040300010BD0220704700BF10B501F00F0E090639
:10404000044627D44FF01C0C0CFB0E0C0CF5FE7133
:10405000CEEBCE0C00EB8C0C00208CF8FD018A60BE
:104060004A7881F800E0CB700AB1A1F806E0022B93
:1040700001D100230B7194F8BC33012B18D001231C
:10408000206884F8BC3305F029F90023184684F829
:10409000BC3310BD1C204FF0010C00FB0E4000F1A2
:1040A0003C01CEEBCE0004EB800080F83DC0D6E7AB
:1040B000022010BD11F0800F01F00F034FF01C0122
:1040C00010B504461AD101FB0341C3EBC302002023
:1040D00001F5FE7104EB820282F8FD010B7094F889
:1040E000BC33012B19D00123206884F8BC3305F0C0
:1040F0003DF90023184684F8BC3310BD01FB034191
:10410000C3EBC302012004EB82023C3182F83D0084
:104110000B7094F8BC33012BE5D1022010BD00BF19
:1041200010B501F00F041C21C4EBC40C01FB040109
:1041300000EB8C0C01F5FE71CCF810320023CCF8AA
:1041400008228CF8FC41CCF814328CF8FD3103695C
:104150000068012B08BFCCF80C22DAB21CB905F0BC
:104160007BFA002010BD05F05FF9002010BD00BFF4
:1041700001F00F01C1EBC10100EB8100D0F8140286
:10418000704700BF10B501F00F041C21C4EBC40C34
:1041900001FB040100EB8C0C3C31CCF850300023C7
:1041A000CCF84820CCF8543001238CF83C408CF8F3
:1041B0003D3003690068012B08BFCCF84C20DAB20F
:1041C0001CB905F049FA002010BD05F02DF90020BA
:1041D00010BD00BF38B5436801F00F059D4234D8CB
:1041E0000B0604461DD41C22C1EBC10302FB0101D6
:1041F00000EB8303002201F5FE7183F8FD2101230A
:104200000D708B7094F8BC239A421CD0206884F8FF
:10421000BC3305F015FBD5B10023184684F8BC3338
:1042200038BD1C21C5EBC503012201FB050100EBD4
:1042300083033C3183F83D2001230D708B7094F88B
:10424000BC239A42E2D1022038BD012038BD04F5DA
:104250007172217C206805F0CDFBDDE7426838B53E
:1042600001F00F03934232D811F0800F04464FF053
:104270001C01C3EBC30219D101FB0341002004EB75
:104280008202002501F5FE7182F8FD010B708D7030
:1042900094F8BC33012B18D00123206884F8BC3378
:1042A00005F002FB284684F8BC5338BD01FB0341EE
:1042B000012004EB820200253C3182F83D000B70A6
:1042C0008D7094F8BC33012BE6D1022038BD01205B
:1042D00038BD00BF10B40468636A31B943EA0243D1
:1042E0000020A3625DF8044B7047A06A013903EB1C
:1042F000104C0BD0002303F14000013304EB80008D
:10430000DBB240688B420CEB104CF4D340314CEAEA
:104310000242002004EB810462605DF8044B7047A8
:10432000034600201B685962704700BF03464FF0E8
:10433000000C09491A68604610B4012483F8F4C3DC
:10434000C3F8FC4393695DF8044B43F00063936149
:10435000536D19435165704703000010704700BF4B
:1043600038B5104CE36813F0040FE36805D103F08F
:104370000703181A18BF012038BD23F007030343B1
:10438000E360FDF763F9054605E0FDF75FF9401BC3
:10439000B0F57A7F04D863689B04F6D5002038BD59
:1043A000012038BD00480258024AD36843F08073A8
:1043B000D3607047004802583B4B30B49A6A9C6AFD
:1043C000DD6A14F47C7F596BC4F3051038D0C1F357
:1043D000CC0105F0010502F0030205FB01F1012A01
:1043E00007EE901AB8EEE77A02D0022A4ED04AB30E
:1043F00007EE900A9FED2D5AF8EEE77A1B6BC5EE9B
:10440000276ADFED2B5AC3F3080307EE903AB7EEA5
:10441000006AF8EEE77AE7EE257A77EE867A66EEBE
:10442000A76A214B1B6BC3F34623013307EE903A77
:10443000B8EEE77AC6EE877AFCEEE77A17EE900AD6
:1044400030BC70471A68920627D5196807EE900AA3
:10445000184AF7EE005A1B6BC1F3C101F8EEE77A78
:104460009FED135AC3F30803CA4006EE903A06EED6
:10447000102AF8EEE66AB8EEC66AE7EE056A86EE3E
:10448000277A76EEA56A66EE876ACAE707EE900A93
:104490009FED095AF8EEE77AB0E707EE900A9FED34
:1044A000075AF8EEE77AA9E7004402580024744A54
:1044B000000000390090D00320BCBE4B0024744C97
:1044C000002800F0E881F8B503680446D9072ED526
:1044D000A4490A69896A02F03802102A00F00781AB
:1044E000182A00F0FF806368B3F5803F00F02A814E
:1044F000002B00F06881B3F5A02F9A4B1A6800F0EA
:10450000698222F480321A601A6822F480221A60CA
:10451000FDF79CF8934E054605E0FDF797F8401B24
:10452000642800F24E8133689B03F6D523689D070B
:1045300000F18A80D90633D58A4A1369926A03F05A
:104540003803082B00F0E380182B00F0DB80E369D0
:10455000844D002B00F06F812B6843F080032B60AB
:10456000FDF774F8064605E0FDF770F8801B022899
:1045700000F227812B68DB05F6D5FDF77FF841F2C5
:104580000303984200F24782226A6B68202A23F0D4
:10459000F8430CBF43F0804343EA82636B602368B7
:1045A0001D0716D563696F4D002B00F022816B6FDC
:1045B00043F001036B67FDF749F8064605E0FDF798
:1045C00045F8801B022800F2FC806B6F9807F6D537
:1045D00023689A0616D5A369624D002B00F01A8154
:1045E0002B6843F480532B60FDF730F8064605E056
:1045F000FDF72CF8801B022800F2E3802B689F0453
:10460000F6D52368590700F1A380606AD0B1554DF3
:104610002B6903F03803182B00F0AE812B680228B9
:1046200023F080732B6000F04281FDF70FF8044601
:1046300005E0FDF70BF8001B022800F2C2802B6892
:104640009B01F6D40020F8BD464A1369926A13F024
:1046500038032DD1434BE2681B68590701D5002A66
:104660004ED0404D2B6823F0190313432B60FCF709
:10467000EDFF064605E0FCF7E9FF801B022800F28B
:10468000A0802B685B07F6D5FCF7F8FF41F2030327
:10469000984200F2F78022696B68402A23F47C3349
:1046A0000CBF43F4003343EA02336B60236841E7F5
:1046B000182B00F0E3802B4DE2682B68002A00F0F5
:1046C000CC8023F0190313432B60FCF7BFFF064691
:1046D00004E0FCF7BBFF801B022872D82B685F0741
:1046E000F7D5D1E701F0030102297FF4FCAE1D4AA2
:1046F000126892037FF51BAF6268002A7FF417AF40
:104700000120F8BD02F00302012A7FF420AF154B0F
:104710001B68DA0502D5E369802BF1D1FCF7AEFF07
:1047200041F20303984200F2B880226A202A00F086
:1047300087810C494B6823F0F84343EA82634B605E
:1047400023682DE7074A136843F480331360DFE6DC
:10475000054D2B6843F480732B60FCF777FF06460A
:1047600009E000BF0044025800480258FCF76EFF01
:10477000801B642825D82B68DA05F7D5A368012BA0
:1047800000F05881002B00F02D81052BA64B1A6FED
:1047900000F05F8122F001021A671A6F22F0040212
:1047A0001A67FCF753FFA04E41F28837054604E034
:1047B000FCF74CFF401BB84203D8336F9B07F7D57B
:1047C00023E70320F8BD984D2B6823F480332B603A
:1047D0002B6823F480232B60FCF738FF064604E0A7
:1047E000FCF734FF801B6428EBD82B689F03F7D4B9
:1047F0009CE66B6F23F001036B67FCF727FF06460F
:1048000004E0FCF723FF801B0228DAD86B6F9907BE
:10481000F7D4DDE62B6823F480532B60FCF716FFFA
:10482000064604E0FCF712FF801B0228C9D82B685B
:104830009804F7D4E5E62B6823F080032B60FCF79F
:1048400005FF064604E0FCF701FF801B0228B8D8EC
:104850002B68DF05F7D42368A2E623F001032B6061
:10486000FCF7F4FE064604E0FCF7F0FE801B02288D
:10487000A7D82B685807F7D423685BE690077FF426
:104880001AAFE7E66B68226923F0FE4343EA02634E
:104890006B6023684EE601207047634A216AD36843
:1048A00023F07C5343EA0163D360236878E6FCF786
:1048B000CDFE064604E0FCF7C9FE801B022880D826
:1048C0002B689901F7D4A96A584BA26A0B40584942
:1048D000554E1343E26A43EA0213AB62D4E90D3248
:1048E000013B013A5B0212049BB202F4FE02134345
:1048F000226B013AC2F308021343E26B013A12063B
:1049000002F0FE4213432B63EB6A23F00103EB62D8
:104910006A6BA36C114041EAC3016963EB6A226CC4
:1049200023F00C031343EB62EB6A626C23F0020387
:104930001343EB62EB6A43F48033EB62EB6A43F4BC
:104940000033EB62EB6A43F48023EB62EB6A43F0E3
:104950000103EB622B6843F080732B60FCF776FE5B
:10496000044605E0FCF772FE001B02283FF629AF63
:1049700033689A01F6D565E60128AA6A2D6B3FF4E3
:1049800062AE02F00303A16A8B427FF4B9AEC2F3B8
:104990000512E36A9A427FF4B3AE236BC5F30802B3
:1049A000013B9A427FF4ACAE636BC5F34622013BF8
:1049B0009A427FF4A5AEA36BC5F30642013B9A422F
:1049C0007FF49EAEE06BC5F306650138281A18BF68
:1049D0000120F8BD42F480221A601A6842F4803245
:1049E0001A6095E5104D41F288372B6F23F00103D3
:1049F0002B672B6F23F004032B67FCF727FE06467B
:104A000005E0FCF723FE801BB8423FF6DAAE2B6FC1
:104A10009807F6D4F9E5EB68226A23F07C5343EA61
:104A20000263EB602368BBE5004402580CFCFFFF07
:104A30000700FFFF0B4A136F43F001031367B0E653
:104A4000084A536823F0F84343F0804353602368D7
:104A5000A6E542F004021A671A6F42F001021A67D3
:104A60009FE600BF00440258474A136903F0380329
:104A7000102B04D0182B0DD01BB14448704744486C
:104A80007047136899064AD513684248C3F3C103B7
:104A9000D8407047936A30B4946AD56A14F47C7F26
:104AA000516BC4F3051038D0C1F3CC0105F00105FA
:104AB00003F0030305FB01F1012B07EE901AB8EE9A
:104AC000E77A02D0022B2CD093B307EE900A9FED29
:104AD000325AF8EEE77A136BC5EE276ADFED2F5AEC
:104AE000C3F3080307EE903AB7EE006AF8EEE77AF0
:104AF000E7EE257A77EE867A66EEA76A224B1B6B85
:104B0000C3F34623013307EE903AB8EEE77AC6EED8
:104B1000877AFCEEE77A17EE900A30BC70471D48A2
:104B2000704707EE900A9FED1E5AF8EEE77AD2E73B
:104B300013689B0620D5146807EE900A1549F7EE16
:104B4000005A136BC4F3C104F8EEE77A9FED135AD1
:104B5000C3F30803E14006EE903A06EE101AF8EEB1
:104B6000E66AB8EEC66AE7EE056A86EE277A76EE62
:104B7000A56A66EE876AC1E707EE900A9FED095ABB
:104B8000F8EEE77AA7E700BF0044025800093D00AD
:104B900040787D010090D0030024744A0000003961
:104BA00020BCBE4B0024744C002800F00C818C4AC1
:104BB000136803F00F038B422DE9F04104460D46C4
:104BC0000CD2136823F00F030B431360136803F038
:104BD0000F038B4202D00120BDE8F08123685F07FC
:104BE0000BD5804920698A6902F07002904204D98D
:104BF0008A6922F0700202438A611E070BD5794947
:104C00006069CA6902F07002904204D9CA6922F050
:104C100070020243CA61D8060BD57249A069CA69FD
:104C200002F4E062904204D9CA6922F4E0620243CD
:104C3000CA6199060BD56B49E0690A6A02F07002F5
:104C4000904204D90A6A22F0700202430A629A076B
:104C500040F1AB806348E168826902F00F02914243
:104C600004D9826922F00F020A438261D80730D545
:104C70005C4AA168936923F470630B439361616894
:104C80001368022900F0A180032900F0988001290F
:104C900000F0A18058079ED5524E41F28838336902
:104CA00023F007030B433361FCF7D0FC074605E014
:104CB000FCF7CCFCC01B404500F28B803369626876
:104CC00003F03803B3EBC20FF2D12368990706D57E
:104CD000E1684448826902F00F028A4269D840497B
:104CE0000A6802F00F02AA420AD90A6822F00F02EB
:104CF0002A430A600A6802F00F02AA427FF46BAFEF
:104D00005A070BD5374920698A6902F07002904230
:104D100004D28A6922F0700202438A611F070BD510
:104D200030496069CA6902F07002904204D2CA69CF
:104D300022F070020243CA61DE060BD52949A06940
:104D4000CA6902F4E062904204D2CA6922F4E062C5
:104D50000243CA619D060BD5224AE169136A03F03A
:104D60007003994204D2136A23F070030B43136259
:104D7000FFF77AFE1B4A03461B4891699269C1F30B
:104D800003211A4D02F00F02194C415C825C01F0C4
:104D90001F01184802F01F02CB4000682B60D3406F
:104DA0002360BDE8F041FCF7EFBBDA073FF560AFE9
:104DB00095E7826922F00F020A4382618FE79F0123
:104DC0003FF56AAF07E7012070479B033FF564AFEB
:104DD00001E7032000E7DE053FF55EAFFBE600BF1D
:104DE000002000520044025814DB00080800002490
:104DF0000C00002414000024184A38B5136903F08D
:104E00003803102B1AD0182B23D0CBB11448134BD6
:104E100014499A699B69C2F30322134C03F00F03F0
:104E2000124D8A5CCB5C02F01F0220FA02F203F002
:104E30001F0022FA00F02A60206038BD0C48E6E727
:104E400013689B0608D513680A48C3F3C103D8400A
:104E5000DDE7FFF7B1FADAE70648D8E70044025881
:104E600000093D0014DB00080C00002408000024A9
:104E700040787D010090D003F8B53A4CA36A03F066
:104E80000303032B67D0236806460F4623F0806395
:104E90002360FCF7DBFB054604E0FCF7D7FB431B74
:104EA000022B56D823681A01F7D4A36A326823F478
:104EB0007C3343EA0233A362D6E90232013B013A72
:104EC0005B0212049BB202F4FE0213437268013AC1
:104ED000C2F3080213433269013A120602F0FE429D
:104EE0001343A363E36A726923F0C0031343E362CD
:104EF000E26AB36922F020021A431B4BE262E26AC3
:104F000022F01002E262E16BF2690B4043EAC20355
:104F1000E363E36A43F01003E362E36AEFB1012F56
:104F20000CBF43F4801343F40013E3620D4C236879
:104F300043F080632360FCF789FB054604E0FCF73F
:104F400085FB401B022804D823681B01F7D50020ED
:104F5000F8BD0320F8BD0120F8BD43F40023E3624F
:104F6000E4E700BF004402580700FFFFF8B53A4CE1
:104F7000A36A03F00303032B67D0236806460F469A
:104F800023F080532360FCF761FB054604E0FCF747
:104F90005DFB431B022B56D823689A00F7D4A36A03
:104FA000326823F07C7343EA0253A362D6E90232EB
:104FB000013B013A5B0212049BB202F4FE0213436E
:104FC0007268013AC2F3080213433269013A1206C9
:104FD00002F0FE4213432364E36A726923F44063E0
:104FE0001343E362E26AB36922F400721A431B4B73
:104FF000E262E26A22F48072E262616CF2690B4062
:1050000043EAC2036364E36A43F48073E362E36ADE
:10501000EFB1012F0CBF43F4000343F08073E36250
:105020000D4C236843F080532360FCF70FFB0546CB
:1050300004E0FCF70BFB401B022804D823689B000C
:10504000F7D50020F8BD0320F8BD0120F8BD43F4DA
:105050008003E362E4E700BF004402580700FFFF5B
:105060002DE9F8430368044613F0006622D0426E2F
:10507000B2F5001F00F0988411D8002A00F00685D0
:10508000B2F5801F40F0FF8402210430FFF7F4FEE8
:105090000646002E40F09084626E236803E0B2F56D
:1050A000401F40F0F084A8480026016D21F4401113
:1050B0000A430265DD050AD5626D042A06D8DFE8D9
:1050C00012F0AD048C049304FC02FC020126354668
:1050D00098051BD5A26D802A00F0978400F2EC8021
:1050E000002A00F0A683402A40F0ED800021201D18
:1050F000FFF7C2FE23680546002D40F080839249E9
:10510000A06D0A6D22F4E07202430A6559051FD5AD
:10511000D4F8A420B2F5800F00F0568400F2D680B7
:10512000002A00F08C83B2F5001F40F0D7800021E8
:10513000201DFFF7A1FE23680546002D40F0638384
:105140008149D4F8A4008A6D22F4600202438A6582
:105150001A051FD5D4F8A820B2F1007F00F06584AD
:1051600000F2BF80002A00F07083B2F1807F40F02F
:10517000C0800021201DFFF77FFE23680546002D1B
:1051800040F045837049D4F8A8008A6D22F0E062AF
:1051900002438A659F0118D5A26C202A00F0CD83B6
:1051A00000F2AA803AB1102A40F0A9806649CA6A82
:1051B00042F40032CA62002D40F05F836249A06C65
:1051C000CA6C22F030020243CA64D8041DD5E26DD5
:1051D000B2F5005F00F0108400F29480002A00F025
:1051E0003A83B2F5805F40F095800021201DFFF7E3
:1051F00043FE23680546002D40F003835249E06DCD
:105200000A6D22F4E04202430A6599041AD5226E1F
:10521000B2F5003F00F075837FD84AB1B2F5803F08
:1052200040F083800121201DFFF726FE23680546FC
:10523000002D40F024834449206E0A6D22F4E022C0
:1052400002430A655A041BD5D4F8AC20B2F1005FC2
:1052500000F061836CD842B1B2F1805F70D101215E
:10526000201DFFF709FE23680546002D40F0098345
:105270003549D4F8AC008A6D22F0E04202438A65D9
:105280001F040DD5E26EB2F1805F00F04E83B2F1E3
:10529000005F00F01E82002A00F0218201263546C0
:1052A000D80162D5626C032A00F21B84DFE812F099
:1052B00053004E0058035300C02A3FF41DAFB2F50F
:1052C000807F3FF419AF012635461FE7B2F5C00FC6
:1052D0003FF433AFB2F5000F3FF42FAF0126354650
:1052E00036E7B2F1407F3FF44AAFB2F1806F3FF44E
:1052F00046AF012635464DE7302A3FF45CAF012624
:10530000354662E7B2F5405F3FF475AFB2F5804FC6
:105310003FF471AF0126354677E722F48031B1F5CD
:10532000802F85D0B2F5403F82D00126354689E7EF
:1053300022F08051B1F1804F97D0B2F1405F94D00C
:10534000012635469CE700BF004402583849CA6A26
:1053500042F40032CA62002D40F085823449606C0C
:10536000CA6C22F003020243CA64590200F1FB81B5
:10537000DF072FD5A26F282A2AD8DFE812F0E9012B
:105380002900290029002900290029002900E3011A
:105390002900290029002900290029002900750376
:1053A0002900290029002900290029002900E901F4
:1053B0002900290029002900290029002900E901E4
:1053C0002900290029002900290029002900E901D4
:1053D0000126354698071BD5626F052A00F27E83A9
:1053E000DFE812F00C0006002C030C000C000C008F
:1053F0000121201DFFF740FD23680546002D40F0E8
:1054000036820B49606F4A6D22F0070202434A65FB
:10541000590720D5D4F89020052A00F26583DFE8EB
:1054200012F00F00090018030F000F000F0000BF5B
:10543000004402580121201DFFF71EFD2368054688
:10544000002D40F01682AB49D4F890008A6D22F00E
:10545000070202438A659A061DD5D4F88C20B2F162
:10546000005F00F0738200F2E6804AB1B2F1805F23
:1054700040F0EB800021201DFFF7FEFC236805466D
:10548000002D40F0EE819B49D4F88C004A6D22F04B
:10549000E04202434A655F061DD5D4F89820B2F574
:1054A000006F00F01A8200F2D3804AB1B2F5806F2B
:1054B00040F0D8800021201DFFF7DEFC2368054660
:1054C000002D40F0E0818B49D4F898008A6D22F4D9
:1054D000E05202438A6518061DD5D4F89C20B2F527
:1054E000804F00F0048200F2C0804AB1B2F5005F44
:1054F00040F0C5800021201DFFF7BEFC2368054653
:10550000002D40F0B2817B49D4F89C008A6D22F4D2
:10551000604202438A6519070BD5D4F88010B1F5B3
:10552000805F00F027827348426D22F440520A43A4
:105530004265DA060BD5D4F89410B1F5807F00F0FF
:1055400026826C48826D22F440720A4382651F03F2
:105550000ED5D4F8A010B1F5803F00F0E080B1F591
:10556000003F00F0E380002900F0AF8101263546BE
:1055700058030FD5D4F88420B2F5001F00F0BC808A
:10558000B2F5401F00F0BF80B2F5801F00F095819A
:1055900001263546D90309D5E26C002A00F07B814B
:1055A000B2F5803F00F03581012635469A0000F1C2
:1055B0001B819F0366D4301E18BF0120DE0206D572
:1055C0004C49256F0A6D22F000422A430A65DD002E
:1055D00007D54849D4F8B4500A6922F480422A43D6
:1055E0000A61990206D54349A56E0A6D22F08072C0
:1055F0002A430A655A0009D53E4A116921F400413F
:1056000011611169D4F8B85029431161002B06DAF1
:105610003849256DCA6C22F040522A43CA641B02E5
:1056200007D5344AD4F88810536D23F440030B4354
:105630005365BDE8F88322F08051B1F1804F3FF40B
:105640001FAFB2F1405F3FF41BAF0126354622E7A2
:1056500022F48061B1F5805F3FF432AFB2F5406F64
:105660003FF42EAF0126354635E722F40051B1F55F
:10567000004F3FF445AFB2F5C04F3FF441AF0126B4
:10568000354648E7E26FB2F5807F00F00D8106D91C
:1056900022F48071B1F5007F03D001208EE7002A4B
:1056A000FBD1002DF9D1134D301E696D18BF0120BB
:1056B00021F440710A436A6580E73546002D40F0C9
:1056C000A4800C49606D0A6D22F0070202430A654E
:1056D000FEE40121201DFFF7CFFB23680546002DC6
:1056E00040F0C9800349E06E0A6D22F04052024347
:1056F0000A65D5E500440258012104F12400FFF7B2
:1057000035FC23680546002D40F0C380AC49D4F831
:1057100084004A6D22F4401202434A653AE70221AE
:1057200004F12400FFF722FC23680546002D40F019
:10573000AE80A349D4F8A0008A6D22F4403202431F
:105740008A6515E70121201DFFF796FB23680546B2
:10575000002D40F09A809A49A06F4A6D22F03802DD
:1057600002434A6536E6974F3B6843F480733B60DB
:10577000FBF76CFF804606E0FBF768FFA0EB080034
:10578000642800F27C813B68DA05F5D5002D40F0F5
:10579000A2818B4AD4F8B030116F594011F4407F88
:1057A0000BD0116F106F21F4407140F480301067FE
:1057B000106F20F4803010671167B3F5807F00F020
:1057C0006C8103F44072B2F5407F00F07A817C492D
:1057D0000A6922F47C520A61794AC3F30B03116F00
:1057E0000B4313672368C3E5022104F12400FFF78C
:1057F000BDFB236800283FF4DCAE0126D9E62E4627
:1058000084E42E4601E52E46A2E42E4660E42E46B0
:10581000C0E40221201DFFF72FFB05462368002D61
:1058200040D16749E06CCA6C22F480320243CA64FA
:10583000BCE66349CA6A42F40032CA625CE4604969
:10584000CA6A42F40032CA6277E45D49CA6A42F425
:105850000032CA6293E45A49CA6A42F40032CA6208
:10586000C9E42E4617E62E467FE52E4653E62E4621
:10587000CEE52E46EFE52E4612E52E46A5E42E4651
:10588000E0E42E46FCE42E4625E62E46A2E52E4612
:105890006EE62E467EE64A49CA6A42F40032CA6281
:1058A000002DBED02E4681E64548C16A41F4003144
:1058B000C162002D7FF4F1AEF5E64149CA6A42F4B7
:1058C0000032CA62002DE4D120E7201DFFF7D4FA90
:1058D00005462368002DDAD12BE7022104F12400CC
:1058E000FFF744FB05462368002DCCD1EBE50221F0
:1058F00004F12400FFF73AFB05462368002DB4D1DC
:1059000001E6012104F12400FFF730FB054623687E
:10591000002DB4D18FE4012104F12400FFF726FB10
:1059200005462368002DACD1A2E42549CA6A42F499
:105930000032CA62002D9ED1D4E60221201DFFF75D
:105940009BFA05462368002D97D137E4022104F124
:105950002400FFF70BFB05462368002D81D192E55B
:105960000221201DFFF788FA05462368002D7FF4E9
:105970007AAFF3E4022104F12400FFF7F7FAD4F838
:105980008010236800283FF4CEAD0126CBE502212C
:1059900004F12400FFF7EAFAD4F8941023680028F1
:1059A0003FF4CFAD0126CCE502212430FFF7DEFA2B
:1059B0000646002E3FF470AB2368FFF77BBB00BFA9
:1059C0000044025800480258002104F12400FFF767
:1059D000CDFA23680546FFF7B0BB0021201DFFF775
:1059E0004BFA2368054669E6002104F12400FFF71D
:1059F000BDFA2368054661E6002104F12400FFF7A3
:105A0000B5FA23680546FFF7F6BB002104F1240030
:105A1000FFF7ACFA23680546FFF76EBB34493546FD
:105A2000CA6A42F40032CA6248E6002104F1240046
:105A3000FFF79CFA23680546FFF7A1BB012104F19B
:105A40002400FFF793FA05462368002D7FF40FAF7B
:105A5000D7E4012104F12400FFF788FA0546236802
:105A6000002D7FF406AFEEE4012104F12400FFF7DE
:105A70007DFA05462368002D7FF407AF6BE6032609
:105A80002368354674E40126FFF714BB1848C16A41
:105A900041F40031C162FFF706BBFBF7D7FDDFF829
:105AA0005080074641F2883904E0FBF7CFFDC01B68
:105AB0004845E4D8D8F870309B07F6D5D4F8B03014
:105AC0007FE60B480B4A016902EA131221F47C516C
:105AD0000A43026180E623682E4649E401263546E2
